{
  "contractName": "MesgStorage",
  "abi": [
    {
      "constant": true,
      "inputs": [
        {
          "name": "runnerType",
          "type": "string"
        },
        {
          "name": "mesgIdentifier",
          "type": "string"
        }
      ],
      "name": "mesgBestValue",
      "outputs": [
        {
          "name": "",
          "type": "string"
        }
      ],
      "payable": false,
      "stateMutability": "view",
      "type": "function"
    },
    {
      "constant": true,
      "inputs": [],
      "name": "minConfirmationsPercent",
      "outputs": [
        {
          "name": "",
          "type": "uint256"
        }
      ],
      "payable": false,
      "stateMutability": "view",
      "type": "function"
    },
    {
      "constant": true,
      "inputs": [
        {
          "name": "runnerType",
          "type": "string"
        },
        {
          "name": "mesgIdentifier",
          "type": "string"
        }
      ],
      "name": "mesgBestValueCount",
      "outputs": [
        {
          "name": "",
          "type": "uint256"
        }
      ],
      "payable": false,
      "stateMutability": "view",
      "type": "function"
    },
    {
      "constant": true,
      "inputs": [],
      "name": "minConfirmationsNumber",
      "outputs": [
        {
          "name": "",
          "type": "uint256"
        }
      ],
      "payable": false,
      "stateMutability": "view",
      "type": "function"
    },
    {
      "constant": true,
      "inputs": [],
      "name": "owner",
      "outputs": [
        {
          "name": "",
          "type": "address"
        }
      ],
      "payable": false,
      "stateMutability": "view",
      "type": "function"
    },
    {
      "constant": true,
      "inputs": [
        {
          "name": "runnerType",
          "type": "string"
        },
        {
          "name": "mesgIdentifier",
          "type": "string"
        }
      ],
      "name": "mesgStatus",
      "outputs": [
        {
          "name": "",
          "type": "uint8"
        }
      ],
      "payable": false,
      "stateMutability": "view",
      "type": "function"
    },
    {
      "constant": false,
      "inputs": [
        {
          "name": "runnerType",
          "type": "string"
        },
        {
          "name": "mesgIdentifier",
          "type": "string"
        },
        {
          "name": "encryptedValue",
          "type": "string"
        }
      ],
      "name": "add",
      "outputs": [],
      "payable": false,
      "stateMutability": "nonpayable",
      "type": "function"
    },
    {
      "inputs": [
        {
          "name": "_minConfirmationsNumber",
          "type": "uint256"
        },
        {
          "name": "_minConfirmationsPercent",
          "type": "uint256"
        }
      ],
      "payable": false,
      "stateMutability": "nonpayable",
      "type": "constructor"
    },
    {
      "anonymous": false,
      "inputs": [
        {
          "indexed": false,
          "name": "runnerType",
          "type": "string"
        },
        {
          "indexed": false,
          "name": "mesgIdentifier",
          "type": "string"
        }
      ],
      "name": "Created",
      "type": "event"
    },
    {
      "anonymous": false,
      "inputs": [
        {
          "indexed": false,
          "name": "runnerType",
          "type": "string"
        },
        {
          "indexed": false,
          "name": "mesgIdentifier",
          "type": "string"
        },
        {
          "indexed": false,
          "name": "sender",
          "type": "address"
        },
        {
          "indexed": false,
          "name": "value",
          "type": "string"
        }
      ],
      "name": "Voted",
      "type": "event"
    },
    {
      "anonymous": false,
      "inputs": [
        {
          "indexed": false,
          "name": "runnerType",
          "type": "string"
        },
        {
          "indexed": false,
          "name": "selectedRunner",
          "type": "address"
        },
        {
          "indexed": false,
          "name": "mesgIdentifier",
          "type": "string"
        }
      ],
      "name": "Confirmed",
      "type": "event"
    },
    {
      "anonymous": false,
      "inputs": [
        {
          "indexed": false,
          "name": "x",
          "type": "string"
        }
      ],
      "name": "Log",
      "type": "event"
    }
  ],
  "bytecode": "0x6060604052341561000f57600080fd5b6040516040806116fb83398101604052808051906020019091908051906020019091905050336000806101000a81548173ffffffffffffffffffffffffffffffffffffffff021916908373ffffffffffffffffffffffffffffffffffffffff16021790555081600181905550806002819055505050611668806100936000396000f300606060405260043610610083576000357c0100000000000000000000000000000000000000000000000000000000900463ffffffff1680631267677d146100885780631cf36d12146101a157806338addb06146101ca5780637d3ada951461027e5780638da5cb5b146102a7578063b2f801e9146102fc578063f034d6b1146103be575b600080fd5b341561009357600080fd5b610126600480803590602001908201803590602001908080601f0160208091040260200160405190810160405280939291908181526020018383808284378201915050505050509190803590602001908201803590602001908080601f016020809104026020016040519081016040528093929190818152602001838380828437820191505050505050919050506104a1565b6040518080602001828103825283818151815260200191508051906020019080838360005b8381101561016657808201518184015260208101905061014b565b50505050905090810190601f1680156101935780820380516001836020036101000a031916815260200191505b509250505060405180910390f35b34156101ac57600080fd5b6101b4610624565b6040518082815260200191505060405180910390f35b34156101d557600080fd5b610268600480803590602001908201803590602001908080601f0160208091040260200160405190810160405280939291908181526020018383808284378201915050505050509190803590602001908201803590602001908080601f0160208091040260200160405190810160405280939291908181526020018383808284378201915050505050509190505061062a565b6040518082815260200191505060405180910390f35b341561028957600080fd5b610291610857565b6040518082815260200191505060405180910390f35b34156102b257600080fd5b6102ba61085d565b604051808273ffffffffffffffffffffffffffffffffffffffff1673ffffffffffffffffffffffffffffffffffffffff16815260200191505060405180910390f35b341561030757600080fd5b61039a600480803590602001908201803590602001908080601f0160208091040260200160405190810160405280939291908181526020018383808284378201915050505050509190803590602001908201803590602001908080601f01602080910402602001604051908101604052809392919081815260200183838082843782019150505050505091905050610882565b604051808260028111156103aa57fe5b60ff16815260200191505060405180910390f35b34156103c957600080fd5b61049f600480803590602001908201803590602001908080601f0160208091040260200160405190810160405280939291908181526020018383808284378201915050505050509190803590602001908201803590602001908080601f0160208091040260200160405190810160405280939291908181526020018383808284378201915050505050509190803590602001908201803590602001908080601f01602080910402602001604051908101604052809392919081815260200183838082843782019150505050505091905050610974565b005b6104a961148b565b6003836040518082805190602001908083835b6020831015156104e157805182526020820191506020810190506020830392506104bc565b6001836020036101000a0380198251168184511680821785525050505050509050019150509081526020016040518091039020600101826040518082805190602001908083835b60208310151561054d5780518252602082019150602081019050602083039250610528565b6001836020036101000a03801982511681845116808217855250505050505090500191505090815260200160405180910390206002018054600181600116156101000203166002900480601f0160208091040260200160405190810160405280929190818152602001828054600181600116156101000203166002900480156106175780601f106105ec57610100808354040283529160200191610617565b820191906000526020600020905b8154815290600101906020018083116105fa57829003601f168201915b5050505050905092915050565b60025481565b60006003836040518082805190602001908083835b602083101515610664578051825260208201915060208101905060208303925061063f565b6001836020036101000a0380198251168184511680821785525050505050509050019150509081526020016040518091039020600101826040518082805190602001908083835b6020831015156106d057805182526020820191506020810190506020830392506106ab565b6001836020036101000a03801982511681845116808217855250505050505090500191505090815260200160405180910390206003016003846040518082805190602001908083835b60208310151561073e5780518252602082019150602081019050602083039250610719565b6001836020036101000a0380198251168184511680821785525050505050509050019150509081526020016040518091039020600101836040518082805190602001908083835b6020831015156107aa5780518252602082019150602081019050602083039250610785565b6001836020036101000a0380198251168184511680821785525050505050509050019150509081526020016040518091039020600201604051808280546001816001161561010002031660029004801561083b5780601f1061081957610100808354040283529182019161083b565b820191906000526020600020905b815481529060010190602001808311610827575b5050915050908152602001604051809103902054905092915050565b60015481565b6000809054906101000a900473ffffffffffffffffffffffffffffffffffffffff1681565b60006003836040518082805190602001908083835b6020831015156108bc5780518252602082019150602081019050602083039250610897565b6001836020036101000a0380198251168184511680821785525050505050509050019150509081526020016040518091039020600101826040518082805190602001908083835b6020831015156109285780518252602082019150602081019050602083039250610903565b6001836020036101000a038019825116818451168082178552505050505050905001915050908152602001604051809103902060000160019054906101000a900460ff16905092915050565b6000806003856040518082805190602001908083835b6020831015156109af578051825260208201915060208101905060208303925061098a565b6001836020036101000a0380198251168184511680821785525050505050509050019150509081526020016040518091039020915081600101846040518082805190602001908083835b602083101515610a1e57805182526020820191506020810190506020830392506109f9565b6001836020036101000a03801982511681845116808217855250505050505090500191505090815260200160405180910390209050600280811115610a5f57fe5b8160000160019054906101000a900460ff166002811115610a7c57fe5b14151515610a8957600080fd5b8060040160003373ffffffffffffffffffffffffffffffffffffffff1673ffffffffffffffffffffffffffffffffffffffff16815260200190815260200160002060000160009054906101000a900460ff16151515610ae757600080fd5b81600101846040518082805190602001908083835b602083101515610b215780518252602082019150602081019050602083039250610afc565b6001836020036101000a038019825116818451168082178552505050505050905001915050908152602001604051809103902060000160009054906101000a900460ff161515610d7257610b7584846112ac565b82600101856040518082805190602001908083835b602083101515610baf5780518252602082019150602081019050602083039250610b8a565b6001836020036101000a038019825116818451168082178552505050505050905001915050908152602001604051809103902060008201518160000160006101000a81548160ff02191690831515021790555060208201518160000160016101000a81548160ff02191690836002811115610c2657fe5b02179055506040820151816001019080519060200190610c4792919061149f565b506060820151816002019080519060200190610c6492919061149f565b509050507fb4086b7a9e5eac405225b6c630a4147f0a8dcb4af3583733b10db7b91ad21ffd8585604051808060200180602001838103835285818151815260200191508051906020019080838360005b83811015610ccf578082015181840152602081019050610cb4565b50505050905090810190601f168015610cfc5780820380516001836020036101000a031916815260200191505b50838103825284818151815260200191508051906020019080838360005b83811015610d35578082015181840152602081019050610d1a565b50505050905090810190601f168015610d625780820380516001836020036101000a031916815260200191505b5094505050505060405180910390a15b610d7b836112ed565b8160040160003373ffffffffffffffffffffffffffffffffffffffff1673ffffffffffffffffffffffffffffffffffffffff16815260200190815260200160002060008201518160000160006101000a81548160ff0219169083151502179055506020820151816001019080519060200190610df892919061149f565b50905050600181600301846040518082805190602001908083835b602083101515610e385780518252602082019150602081019050602083039250610e13565b6001836020036101000a03801982511681845116808217855250505050505090500191505090815260200160405180910390206000828254019250508190555080600301836040518082805190602001908083835b602083101515610eb25780518252602082019150602081019050602083039250610e8d565b6001836020036101000a03801982511681845116808217855250505050505090500191505090815260200160405180910390205481600301826002016040518082805460018160011615610100020316600290048015610f495780601f10610f27576101008083540402835291820191610f49565b820191906000526020600020905b815481529060010190602001808311610f35575b50509150509081526020016040518091039020541015610f7d5782816002019080519060200190610f7b92919061151f565b505b7f3acf4f7257d35104bd7a4f4548ba1e3177cfabe1bae7a4b81d1e785bbf755a6b858260010133866040518080602001806020018573ffffffffffffffffffffffffffffffffffffffff1673ffffffffffffffffffffffffffffffffffffffff16815260200180602001848103845288818151815260200191508051906020019080838360005b8381101561101f578082015181840152602081019050611004565b50505050905090810190601f16801561104c5780820380516001836020036101000a031916815260200191505b508481038352878181546001816001161561010002031660029004815260200191508054600181600116156101000203166002900480156110ce5780601f106110a3576101008083540402835291602001916110ce565b820191906000526020600020905b8154815290600101906020018083116110b157829003601f168201915b5050848103825285818151815260200191508051906020019080838360005b838110156111085780820151818401526020810190506110ed565b50505050905090810190601f1680156111355780820380516001836020036101000a031916815260200191505b5097505050505050505060405180910390a16111518585611314565b156112a55760018160000160016101000a81548160ff0219169083600281111561117757fe5b02179055507f7585cb017c9159ac0bcf70c2845d8362f991d11c62204089fb58085a946bcd808560008660405180806020018473ffffffffffffffffffffffffffffffffffffffff16815260200180602001838103835286818151815260200191508051906020019080838360005b838110156112015780820151818401526020810190506111e6565b50505050905090810190601f16801561122e5780820380516001836020036101000a031916815260200191505b50838103825284818151815260200191508051906020019080838360005b8381101561126757808201518184015260208101905061124c565b50505050905090810190601f1680156112945780820380516001836020036101000a031916815260200191505b509550505050505060405180910390a15b5050505050565b6112b461159f565b608060405190810160405280600115158152602001600060028111156112d657fe5b815260200184815260200183815250905092915050565b6112f56115e1565b6040805190810160405280600115158152602001838152509050919050565b60008060006003856040518082805190602001908083835b602083101515611351578051825260208201915060208101905060208303925061132c565b6001836020036101000a0380198251168184511680821785525050505050509050019150509081526020016040518091039020600101846040518082805190602001908083835b6020831015156113bd5780518252602082019150602081019050602083039250611398565b6001836020036101000a03801982511681845116808217855250505050505090500191505090815260200160405180910390209150816003018260020160405180828054600181600116156101000203166002900480156114555780601f10611433576101008083540402835291820191611455565b820191906000526020600020905b815481529060010190602001808311611441575b5050915050908152602001604051809103902054905060015481101561147e5760009250611483565b600192505b505092915050565b602060405190810160405280600081525090565b828054600181600116156101000203166002900490600052602060002090601f016020900481019282601f106114e057805160ff191683800117855561150e565b8280016001018555821561150e579182015b8281111561150d5782518255916020019190600101906114f2565b5b50905061151b9190611603565b5090565b828054600181600116156101000203166002900490600052602060002090601f016020900481019282601f1061156057805160ff191683800117855561158e565b8280016001018555821561158e579182015b8281111561158d578251825591602001919060010190611572565b5b50905061159b9190611603565b5090565b608060405190810160405280600015158152602001600060028111156115c157fe5b81526020016115ce611628565b81526020016115db611628565b81525090565b60408051908101604052806000151581526020016115fd611628565b81525090565b61162591905b80821115611621576000816000905550600101611609565b5090565b90565b6020604051908101604052806000815250905600a165627a7a723058208cadd7eb31c2c84dc453ad54817325ea7ce3b87da14644c0285c5dce42beabd50029",
  "source": "pragma solidity ^0.4.17;\n\ncontract MesgStorage {\n  \n  enum Status {\n    Pending,\n    Confirmed,\n    Finished\n  }\n\n  struct Result {\n    bool voted;\n    string encryptedValue;\n  }\n\n  struct Mesg {\n    bool created;\n    Status status;\n    string id;\n    string bestValue;\n    mapping (string => uint) encryptedValuesCount;\n    mapping (address => Result) results;\n  }\n\n  struct Runner {\n    string runnerType;\n    mapping (string => Mesg) mesgMap;\n  }\n\n  address public owner;\n  uint public minConfirmationsNumber;\n  uint public minConfirmationsPercent;\n  mapping (string => Runner) private m_runners;\n\n  event Created(string runnerType, string mesgIdentifier);\n  event Voted(string runnerType, string mesgIdentifier, address sender, string value);\n  event Confirmed(string runnerType, address selectedRunner, string mesgIdentifier);\n\n  event Log(string x);\n\n  function MesgStorage(uint _minConfirmationsNumber, uint _minConfirmationsPercent) public {\n    owner = msg.sender;\n    minConfirmationsNumber = _minConfirmationsNumber;\n    minConfirmationsPercent = _minConfirmationsPercent;\n  }\n\n  function mesgStatus(string runnerType, string mesgIdentifier) public view returns (Status) { return m_runners[runnerType].mesgMap[mesgIdentifier].status; }\n  function mesgBestValue(string runnerType, string mesgIdentifier) public view returns (string) { return m_runners[runnerType].mesgMap[mesgIdentifier].bestValue; }\n  function mesgBestValueCount(string runnerType, string mesgIdentifier) public view returns (uint) { return m_runners[runnerType].mesgMap[mesgIdentifier].encryptedValuesCount[m_runners[runnerType].mesgMap[mesgIdentifier].bestValue]; }\n\n  function add(string runnerType, string mesgIdentifier, string encryptedValue) public {\n    // TODO check runner type\n    // require(!validRunner(runnerType));\n    Runner storage runner = m_runners[runnerType];\n    Mesg storage mesg = runner.mesgMap[mesgIdentifier];\n\n    // Ignore all new mesgs that happen after the validation\n    // if we don't reject those verification, users will pay \n    // the fees but will never get the reward because the event\n    // is already processed\n    require(mesg.status != Status.Finished);\n\n    // Check that the sender didn't submit it's event already\n    require(!mesg.results[msg.sender].voted);\n\n    // if the event is not yet in the database\n    if (!runner.mesgMap[mesgIdentifier].created) {\n      runner.mesgMap[mesgIdentifier] = createMesg(mesgIdentifier, encryptedValue);\n      Created(runnerType, mesgIdentifier);\n    }\n\n    mesg.results[msg.sender] = createResult(encryptedValue);\n    mesg.encryptedValuesCount[encryptedValue] += 1;\n    if (mesg.encryptedValuesCount[mesg.bestValue] < mesg.encryptedValuesCount[encryptedValue]) {\n      mesg.bestValue = encryptedValue;\n    }\n\n    Voted(runnerType, mesg.id, msg.sender, encryptedValue);\n\n    if (canConfirm(runnerType, mesgIdentifier)) {\n      mesg.status = Status.Confirmed;\n      Confirmed(runnerType, 0x0, mesgIdentifier); // TODO find runner address and encrypt the data with it's public key\n    }\n  }\n\n  function canConfirm(string runnerType, string mesgIdentifier) private view returns (bool) {\n    // if (state(runnerType, mesgIdentifier) != Status.Pending) {\n    //   return false;\n    // }\n    Mesg storage mesg = m_runners[runnerType].mesgMap[mesgIdentifier];\n    uint bestSubmissionTotal = mesg.encryptedValuesCount[mesg.bestValue];\n    if (bestSubmissionTotal < minConfirmationsNumber) {\n      return false;\n    }\n    // TODO add check over the network \n    // if (bestSubmissionTotal < network.nodeForService(service)) {\n    //   return false;\n    // }\n    return true;\n  }\n\n  function createMesg(string mesgIdentifier, string encryptedValue) private pure returns (Mesg) {\n    return Mesg({\n      created: true,\n      id: mesgIdentifier,\n      status: Status.Pending,\n      bestValue: encryptedValue\n    });\n  }\n\n  function createResult(string value) private pure returns (Result) {\n    return Result({\n      voted: true,\n      encryptedValue: value\n    });\n  }\n}",
  "sourcePath": "/Users/antho/prog/projectX/v4-distributed-db-blockchain/contracts/MesgStorage.sol",
  "compiler": {
    "name": "solc",
    "version": "0.4.18+commit.9cf6e910.Emscripten.clang"
  },
  "schemaVersion": "1.0.1",
  "updatedAt": "2017-12-27T04:22:31.823Z"
}